{
  "address": "0xE04787d3bf6fF9F6949e3fbD10De298DC67d05CB",
  "abi": [
    {
      "inputs": [
        {
          "internalType": "address",
          "name": "_homeProxy",
          "type": "address"
        },
        {
          "internalType": "address",
          "name": "_governor",
          "type": "address"
        },
        {
          "internalType": "contract IArbitrator",
          "name": "_arbitrator",
          "type": "address"
        },
        {
          "internalType": "bytes",
          "name": "_arbitratorExtraData",
          "type": "bytes"
        },
        {
          "internalType": "address",
          "name": "_inbox",
          "type": "address"
        },
        {
          "internalType": "uint256",
          "name": "_surplusAmount",
          "type": "uint256"
        },
        {
          "internalType": "uint256",
          "name": "_l2GasLimit",
          "type": "uint256"
        },
        {
          "internalType": "uint256",
          "name": "_gasPriceBid",
          "type": "uint256"
        },
        {
          "internalType": "string",
          "name": "_metaEvidence",
          "type": "string"
        },
        {
          "internalType": "uint256[3]",
          "name": "_multipliers",
          "type": "uint256[3]"
        }
      ],
      "stateMutability": "nonpayable",
      "type": "constructor"
    },
    {
      "anonymous": false,
      "inputs": [
        {
          "indexed": true,
          "internalType": "bytes32",
          "name": "_questionID",
          "type": "bytes32"
        },
        {
          "indexed": true,
          "internalType": "address",
          "name": "_requester",
          "type": "address"
        }
      ],
      "name": "ArbitrationCanceled",
      "type": "event"
    },
    {
      "anonymous": false,
      "inputs": [
        {
          "indexed": true,
          "internalType": "bytes32",
          "name": "_questionID",
          "type": "bytes32"
        },
        {
          "indexed": true,
          "internalType": "address",
          "name": "_requester",
          "type": "address"
        },
        {
          "indexed": true,
          "internalType": "uint256",
          "name": "_disputeID",
          "type": "uint256"
        }
      ],
      "name": "ArbitrationCreated",
      "type": "event"
    },
    {
      "anonymous": false,
      "inputs": [
        {
          "indexed": true,
          "internalType": "bytes32",
          "name": "_questionID",
          "type": "bytes32"
        },
        {
          "indexed": true,
          "internalType": "address",
          "name": "_requester",
          "type": "address"
        }
      ],
      "name": "ArbitrationFailed",
      "type": "event"
    },
    {
      "anonymous": false,
      "inputs": [
        {
          "indexed": true,
          "internalType": "bytes32",
          "name": "_questionID",
          "type": "bytes32"
        },
        {
          "indexed": true,
          "internalType": "address",
          "name": "_requester",
          "type": "address"
        },
        {
          "indexed": false,
          "internalType": "uint256",
          "name": "_maxPrevious",
          "type": "uint256"
        }
      ],
      "name": "ArbitrationRequested",
      "type": "event"
    },
    {
      "anonymous": false,
      "inputs": [
        {
          "indexed": true,
          "internalType": "uint256",
          "name": "_localDisputeID",
          "type": "uint256"
        },
        {
          "indexed": true,
          "internalType": "uint256",
          "name": "_round",
          "type": "uint256"
        },
        {
          "indexed": false,
          "internalType": "uint256",
          "name": "ruling",
          "type": "uint256"
        },
        {
          "indexed": true,
          "internalType": "address",
          "name": "_contributor",
          "type": "address"
        },
        {
          "indexed": false,
          "internalType": "uint256",
          "name": "_amount",
          "type": "uint256"
        }
      ],
      "name": "Contribution",
      "type": "event"
    },
    {
      "anonymous": false,
      "inputs": [
        {
          "indexed": true,
          "internalType": "contract IArbitrator",
          "name": "_arbitrator",
          "type": "address"
        },
        {
          "indexed": true,
          "internalType": "uint256",
          "name": "_disputeID",
          "type": "uint256"
        },
        {
          "indexed": false,
          "internalType": "uint256",
          "name": "_metaEvidenceID",
          "type": "uint256"
        },
        {
          "indexed": false,
          "internalType": "uint256",
          "name": "_evidenceGroupID",
          "type": "uint256"
        }
      ],
      "name": "Dispute",
      "type": "event"
    },
    {
      "anonymous": false,
      "inputs": [
        {
          "indexed": true,
          "internalType": "contract IArbitrator",
          "name": "_arbitrator",
          "type": "address"
        },
        {
          "indexed": true,
          "internalType": "uint256",
          "name": "_evidenceGroupID",
          "type": "uint256"
        },
        {
          "indexed": true,
          "internalType": "address",
          "name": "_party",
          "type": "address"
        },
        {
          "indexed": false,
          "internalType": "string",
          "name": "_evidence",
          "type": "string"
        }
      ],
      "name": "Evidence",
      "type": "event"
    },
    {
      "anonymous": false,
      "inputs": [
        {
          "indexed": true,
          "internalType": "uint256",
          "name": "_metaEvidenceID",
          "type": "uint256"
        },
        {
          "indexed": false,
          "internalType": "string",
          "name": "_evidence",
          "type": "string"
        }
      ],
      "name": "MetaEvidence",
      "type": "event"
    },
    {
      "anonymous": false,
      "inputs": [
        {
          "indexed": true,
          "internalType": "uint256",
          "name": "ticketId",
          "type": "uint256"
        }
      ],
      "name": "RetryableTicketCreated",
      "type": "event"
    },
    {
      "anonymous": false,
      "inputs": [
        {
          "indexed": true,
          "internalType": "contract IArbitrator",
          "name": "_arbitrator",
          "type": "address"
        },
        {
          "indexed": true,
          "internalType": "uint256",
          "name": "_disputeID",
          "type": "uint256"
        },
        {
          "indexed": false,
          "internalType": "uint256",
          "name": "_ruling",
          "type": "uint256"
        }
      ],
      "name": "Ruling",
      "type": "event"
    },
    {
      "anonymous": false,
      "inputs": [
        {
          "indexed": true,
          "internalType": "uint256",
          "name": "_localDisputeID",
          "type": "uint256"
        },
        {
          "indexed": true,
          "internalType": "uint256",
          "name": "_round",
          "type": "uint256"
        },
        {
          "indexed": true,
          "internalType": "uint256",
          "name": "_ruling",
          "type": "uint256"
        }
      ],
      "name": "RulingFunded",
      "type": "event"
    },
    {
      "anonymous": false,
      "inputs": [
        {
          "indexed": false,
          "internalType": "bytes32",
          "name": "_questionID",
          "type": "bytes32"
        },
        {
          "indexed": false,
          "internalType": "bytes32",
          "name": "_ruling",
          "type": "bytes32"
        }
      ],
      "name": "RulingRelayed",
      "type": "event"
    },
    {
      "anonymous": false,
      "inputs": [
        {
          "indexed": true,
          "internalType": "uint256",
          "name": "_localDisputeID",
          "type": "uint256"
        },
        {
          "indexed": true,
          "internalType": "uint256",
          "name": "_round",
          "type": "uint256"
        },
        {
          "indexed": false,
          "internalType": "uint256",
          "name": "_ruling",
          "type": "uint256"
        },
        {
          "indexed": true,
          "internalType": "address",
          "name": "_contributor",
          "type": "address"
        },
        {
          "indexed": false,
          "internalType": "uint256",
          "name": "_reward",
          "type": "uint256"
        }
      ],
      "name": "Withdrawal",
      "type": "event"
    },
    {
      "inputs": [],
      "name": "MULTIPLIER_DIVISOR",
      "outputs": [
        {
          "internalType": "uint256",
          "name": "",
          "type": "uint256"
        }
      ],
      "stateMutability": "view",
      "type": "function"
    },
    {
      "inputs": [],
      "name": "NUMBER_OF_CHOICES_FOR_ARBITRATOR",
      "outputs": [
        {
          "internalType": "uint256",
          "name": "",
          "type": "uint256"
        }
      ],
      "stateMutability": "view",
      "type": "function"
    },
    {
      "inputs": [],
      "name": "REFUSE_TO_ARBITRATE_REALITIO",
      "outputs": [
        {
          "internalType": "uint256",
          "name": "",
          "type": "uint256"
        }
      ],
      "stateMutability": "view",
      "type": "function"
    },
    {
      "inputs": [],
      "name": "VERSION",
      "outputs": [
        {
          "internalType": "string",
          "name": "",
          "type": "string"
        }
      ],
      "stateMutability": "view",
      "type": "function"
    },
    {
      "inputs": [
        {
          "internalType": "uint256",
          "name": "",
          "type": "uint256"
        }
      ],
      "name": "arbitrationIDToDisputeExists",
      "outputs": [
        {
          "internalType": "bool",
          "name": "",
          "type": "bool"
        }
      ],
      "stateMutability": "view",
      "type": "function"
    },
    {
      "inputs": [
        {
          "internalType": "uint256",
          "name": "",
          "type": "uint256"
        }
      ],
      "name": "arbitrationIDToRequester",
      "outputs": [
        {
          "internalType": "address",
          "name": "",
          "type": "address"
        }
      ],
      "stateMutability": "view",
      "type": "function"
    },
    {
      "inputs": [
        {
          "internalType": "uint256",
          "name": "",
          "type": "uint256"
        },
        {
          "internalType": "address",
          "name": "",
          "type": "address"
        }
      ],
      "name": "arbitrationRequests",
      "outputs": [
        {
          "internalType": "enum RealitioForeignProxyArb.Status",
          "name": "status",
          "type": "uint8"
        },
        {
          "internalType": "uint248",
          "name": "deposit",
          "type": "uint248"
        },
        {
          "internalType": "uint256",
          "name": "disputeID",
          "type": "uint256"
        },
        {
          "internalType": "uint256",
          "name": "answer",
          "type": "uint256"
        },
        {
          "internalType": "contract IArbitrator",
          "name": "arbitrator",
          "type": "address"
        },
        {
          "internalType": "bytes",
          "name": "arbitratorExtraData",
          "type": "bytes"
        },
        {
          "internalType": "uint256",
          "name": "metaEvidenceID",
          "type": "uint256"
        }
      ],
      "stateMutability": "view",
      "type": "function"
    },
    {
      "inputs": [],
      "name": "arbitrator",
      "outputs": [
        {
          "internalType": "contract IArbitrator",
          "name": "",
          "type": "address"
        }
      ],
      "stateMutability": "view",
      "type": "function"
    },
    {
      "inputs": [],
      "name": "arbitratorExtraData",
      "outputs": [
        {
          "internalType": "bytes",
          "name": "",
          "type": "bytes"
        }
      ],
      "stateMutability": "view",
      "type": "function"
    },
    {
      "inputs": [
        {
          "internalType": "contract IArbitrator",
          "name": "_arbitrator",
          "type": "address"
        },
        {
          "internalType": "bytes",
          "name": "_arbitratorExtraData",
          "type": "bytes"
        }
      ],
      "name": "changeArbitrator",
      "outputs": [],
      "stateMutability": "nonpayable",
      "type": "function"
    },
    {
      "inputs": [
        {
          "internalType": "uint256",
          "name": "_gasPriceBid",
          "type": "uint256"
        }
      ],
      "name": "changeGasPriceBid",
      "outputs": [],
      "stateMutability": "nonpayable",
      "type": "function"
    },
    {
      "inputs": [
        {
          "internalType": "address",
          "name": "_governor",
          "type": "address"
        }
      ],
      "name": "changeGovernor",
      "outputs": [],
      "stateMutability": "nonpayable",
      "type": "function"
    },
    {
      "inputs": [
        {
          "internalType": "contract IInbox",
          "name": "_inbox",
          "type": "address"
        }
      ],
      "name": "changeInbox",
      "outputs": [],
      "stateMutability": "nonpayable",
      "type": "function"
    },
    {
      "inputs": [
        {
          "internalType": "uint256",
          "name": "_l2GasLimit",
          "type": "uint256"
        }
      ],
      "name": "changeL2GasLimit",
      "outputs": [],
      "stateMutability": "nonpayable",
      "type": "function"
    },
    {
      "inputs": [
        {
          "internalType": "uint256",
          "name": "_loserAppealPeriodMultiplier",
          "type": "uint256"
        }
      ],
      "name": "changeLoserAppealPeriodMultiplier",
      "outputs": [],
      "stateMutability": "nonpayable",
      "type": "function"
    },
    {
      "inputs": [
        {
          "internalType": "uint256",
          "name": "_loserMultiplier",
          "type": "uint256"
        }
      ],
      "name": "changeLoserMultiplier",
      "outputs": [],
      "stateMutability": "nonpayable",
      "type": "function"
    },
    {
      "inputs": [
        {
          "internalType": "string",
          "name": "_metaEvidence",
          "type": "string"
        }
      ],
      "name": "changeMetaevidence",
      "outputs": [],
      "stateMutability": "nonpayable",
      "type": "function"
    },
    {
      "inputs": [
        {
          "internalType": "uint256",
          "name": "_surplus",
          "type": "uint256"
        }
      ],
      "name": "changeSurplus",
      "outputs": [],
      "stateMutability": "nonpayable",
      "type": "function"
    },
    {
      "inputs": [
        {
          "internalType": "uint256",
          "name": "_winnerMultiplier",
          "type": "uint256"
        }
      ],
      "name": "changeWinnerMultiplier",
      "outputs": [],
      "stateMutability": "nonpayable",
      "type": "function"
    },
    {
      "inputs": [],
      "name": "deployer",
      "outputs": [
        {
          "internalType": "address",
          "name": "",
          "type": "address"
        }
      ],
      "stateMutability": "view",
      "type": "function"
    },
    {
      "inputs": [
        {
          "internalType": "uint256",
          "name": "",
          "type": "uint256"
        }
      ],
      "name": "disputeIDToDisputeDetails",
      "outputs": [
        {
          "internalType": "uint256",
          "name": "arbitrationID",
          "type": "uint256"
        },
        {
          "internalType": "address",
          "name": "requester",
          "type": "address"
        }
      ],
      "stateMutability": "view",
      "type": "function"
    },
    {
      "inputs": [
        {
          "internalType": "uint256",
          "name": "_externalDisputeID",
          "type": "uint256"
        }
      ],
      "name": "externalIDtoLocalID",
      "outputs": [
        {
          "internalType": "uint256",
          "name": "",
          "type": "uint256"
        }
      ],
      "stateMutability": "view",
      "type": "function"
    },
    {
      "inputs": [
        {
          "internalType": "uint256",
          "name": "_arbitrationID",
          "type": "uint256"
        },
        {
          "internalType": "uint256",
          "name": "_answer",
          "type": "uint256"
        }
      ],
      "name": "fundAppeal",
      "outputs": [
        {
          "internalType": "bool",
          "name": "",
          "type": "bool"
        }
      ],
      "stateMutability": "payable",
      "type": "function"
    },
    {
      "inputs": [],
      "name": "gasPriceBid",
      "outputs": [
        {
          "internalType": "uint256",
          "name": "",
          "type": "uint256"
        }
      ],
      "stateMutability": "view",
      "type": "function"
    },
    {
      "inputs": [
        {
          "internalType": "uint256",
          "name": "_arbitrationID",
          "type": "uint256"
        },
        {
          "internalType": "uint256",
          "name": "_round",
          "type": "uint256"
        },
        {
          "internalType": "address",
          "name": "_contributor",
          "type": "address"
        }
      ],
      "name": "getContributionsToSuccessfulFundings",
      "outputs": [
        {
          "internalType": "uint256[]",
          "name": "fundedAnswers",
          "type": "uint256[]"
        },
        {
          "internalType": "uint256[]",
          "name": "contributions",
          "type": "uint256[]"
        }
      ],
      "stateMutability": "view",
      "type": "function"
    },
    {
      "inputs": [
        {
          "internalType": "bytes32",
          "name": "",
          "type": "bytes32"
        }
      ],
      "name": "getDisputeFee",
      "outputs": [
        {
          "internalType": "uint256",
          "name": "",
          "type": "uint256"
        }
      ],
      "stateMutability": "view",
      "type": "function"
    },
    {
      "inputs": [
        {
          "internalType": "uint256",
          "name": "_arbitrationID",
          "type": "uint256"
        },
        {
          "internalType": "uint256",
          "name": "_round",
          "type": "uint256"
        },
        {
          "internalType": "uint256",
          "name": "_answer",
          "type": "uint256"
        }
      ],
      "name": "getFundingStatus",
      "outputs": [
        {
          "internalType": "uint256",
          "name": "raised",
          "type": "uint256"
        },
        {
          "internalType": "bool",
          "name": "fullyFunded",
          "type": "bool"
        }
      ],
      "stateMutability": "view",
      "type": "function"
    },
    {
      "inputs": [],
      "name": "getMultipliers",
      "outputs": [
        {
          "internalType": "uint256",
          "name": "winner",
          "type": "uint256"
        },
        {
          "internalType": "uint256",
          "name": "loser",
          "type": "uint256"
        },
        {
          "internalType": "uint256",
          "name": "loserAppealPeriod",
          "type": "uint256"
        },
        {
          "internalType": "uint256",
          "name": "divisor",
          "type": "uint256"
        }
      ],
      "stateMutability": "view",
      "type": "function"
    },
    {
      "inputs": [
        {
          "internalType": "uint256",
          "name": "_arbitrationID",
          "type": "uint256"
        }
      ],
      "name": "getNumberOfRounds",
      "outputs": [
        {
          "internalType": "uint256",
          "name": "",
          "type": "uint256"
        }
      ],
      "stateMutability": "view",
      "type": "function"
    },
    {
      "inputs": [
        {
          "internalType": "uint256",
          "name": "_arbitrationID",
          "type": "uint256"
        },
        {
          "internalType": "uint256",
          "name": "_round",
          "type": "uint256"
        }
      ],
      "name": "getRoundInfo",
      "outputs": [
        {
          "internalType": "uint256[]",
          "name": "paidFees",
          "type": "uint256[]"
        },
        {
          "internalType": "uint256",
          "name": "feeRewards",
          "type": "uint256"
        },
        {
          "internalType": "uint256[]",
          "name": "fundedAnswers",
          "type": "uint256[]"
        }
      ],
      "stateMutability": "view",
      "type": "function"
    },
    {
      "inputs": [
        {
          "internalType": "uint256",
          "name": "_arbitrationID",
          "type": "uint256"
        },
        {
          "internalType": "address payable",
          "name": "_beneficiary",
          "type": "address"
        },
        {
          "internalType": "uint256",
          "name": "_contributedTo",
          "type": "uint256"
        }
      ],
      "name": "getTotalWithdrawableAmount",
      "outputs": [
        {
          "internalType": "uint256",
          "name": "sum",
          "type": "uint256"
        }
      ],
      "stateMutability": "view",
      "type": "function"
    },
    {
      "inputs": [],
      "name": "governor",
      "outputs": [
        {
          "internalType": "address",
          "name": "",
          "type": "address"
        }
      ],
      "stateMutability": "view",
      "type": "function"
    },
    {
      "inputs": [
        {
          "internalType": "bytes32",
          "name": "_questionID",
          "type": "bytes32"
        },
        {
          "internalType": "address",
          "name": "_requester",
          "type": "address"
        }
      ],
      "name": "handleFailedDisputeCreation",
      "outputs": [],
      "stateMutability": "payable",
      "type": "function"
    },
    {
      "inputs": [],
      "name": "homeProxy",
      "outputs": [
        {
          "internalType": "address",
          "name": "",
          "type": "address"
        }
      ],
      "stateMutability": "view",
      "type": "function"
    },
    {
      "inputs": [],
      "name": "inbox",
      "outputs": [
        {
          "internalType": "contract IInbox",
          "name": "",
          "type": "address"
        }
      ],
      "stateMutability": "view",
      "type": "function"
    },
    {
      "inputs": [],
      "name": "l2GasLimit",
      "outputs": [
        {
          "internalType": "uint256",
          "name": "",
          "type": "uint256"
        }
      ],
      "stateMutability": "view",
      "type": "function"
    },
    {
      "inputs": [],
      "name": "loserAppealPeriodMultiplier",
      "outputs": [
        {
          "internalType": "uint256",
          "name": "",
          "type": "uint256"
        }
      ],
      "stateMutability": "view",
      "type": "function"
    },
    {
      "inputs": [],
      "name": "loserMultiplier",
      "outputs": [
        {
          "internalType": "uint256",
          "name": "",
          "type": "uint256"
        }
      ],
      "stateMutability": "view",
      "type": "function"
    },
    {
      "inputs": [],
      "name": "metaEvidenceUpdates",
      "outputs": [
        {
          "internalType": "uint256",
          "name": "",
          "type": "uint256"
        }
      ],
      "stateMutability": "view",
      "type": "function"
    },
    {
      "inputs": [
        {
          "internalType": "uint256",
          "name": "",
          "type": "uint256"
        }
      ],
      "name": "numberOfRulingOptions",
      "outputs": [
        {
          "internalType": "uint256",
          "name": "",
          "type": "uint256"
        }
      ],
      "stateMutability": "pure",
      "type": "function"
    },
    {
      "inputs": [
        {
          "internalType": "bytes32",
          "name": "_questionID",
          "type": "bytes32"
        }
      ],
      "name": "questionIDToArbitrationID",
      "outputs": [
        {
          "internalType": "uint256",
          "name": "",
          "type": "uint256"
        }
      ],
      "stateMutability": "pure",
      "type": "function"
    },
    {
      "inputs": [
        {
          "internalType": "bytes32",
          "name": "_questionID",
          "type": "bytes32"
        },
        {
          "internalType": "address",
          "name": "_requester",
          "type": "address"
        }
      ],
      "name": "receiveArbitrationAcknowledgement",
      "outputs": [],
      "stateMutability": "nonpayable",
      "type": "function"
    },
    {
      "inputs": [
        {
          "internalType": "bytes32",
          "name": "_questionID",
          "type": "bytes32"
        },
        {
          "internalType": "address",
          "name": "_requester",
          "type": "address"
        }
      ],
      "name": "receiveArbitrationCancelation",
      "outputs": [],
      "stateMutability": "nonpayable",
      "type": "function"
    },
    {
      "inputs": [
        {
          "internalType": "bytes32",
          "name": "_questionID",
          "type": "bytes32"
        },
        {
          "internalType": "address",
          "name": "_requester",
          "type": "address"
        }
      ],
      "name": "relayRule",
      "outputs": [],
      "stateMutability": "payable",
      "type": "function"
    },
    {
      "inputs": [
        {
          "internalType": "bytes32",
          "name": "_questionID",
          "type": "bytes32"
        },
        {
          "internalType": "uint256",
          "name": "_maxPrevious",
          "type": "uint256"
        }
      ],
      "name": "requestArbitration",
      "outputs": [],
      "stateMutability": "payable",
      "type": "function"
    },
    {
      "inputs": [
        {
          "internalType": "uint256",
          "name": "_disputeID",
          "type": "uint256"
        },
        {
          "internalType": "uint256",
          "name": "_ruling",
          "type": "uint256"
        }
      ],
      "name": "rule",
      "outputs": [],
      "stateMutability": "nonpayable",
      "type": "function"
    },
    {
      "inputs": [
        {
          "internalType": "uint256",
          "name": "_arbitrationID",
          "type": "uint256"
        },
        {
          "internalType": "string",
          "name": "_evidenceURI",
          "type": "string"
        }
      ],
      "name": "submitEvidence",
      "outputs": [],
      "stateMutability": "nonpayable",
      "type": "function"
    },
    {
      "inputs": [],
      "name": "surplusAmount",
      "outputs": [
        {
          "internalType": "uint256",
          "name": "",
          "type": "uint256"
        }
      ],
      "stateMutability": "view",
      "type": "function"
    },
    {
      "inputs": [],
      "name": "winnerMultiplier",
      "outputs": [
        {
          "internalType": "uint256",
          "name": "",
          "type": "uint256"
        }
      ],
      "stateMutability": "view",
      "type": "function"
    },
    {
      "inputs": [
        {
          "internalType": "uint256",
          "name": "_arbitrationID",
          "type": "uint256"
        },
        {
          "internalType": "address payable",
          "name": "_beneficiary",
          "type": "address"
        },
        {
          "internalType": "uint256",
          "name": "_round",
          "type": "uint256"
        },
        {
          "internalType": "uint256",
          "name": "_answer",
          "type": "uint256"
        }
      ],
      "name": "withdrawFeesAndRewards",
      "outputs": [
        {
          "internalType": "uint256",
          "name": "reward",
          "type": "uint256"
        }
      ],
      "stateMutability": "nonpayable",
      "type": "function"
    },
    {
      "inputs": [
        {
          "internalType": "uint256",
          "name": "_arbitrationID",
          "type": "uint256"
        },
        {
          "internalType": "address payable",
          "name": "_beneficiary",
          "type": "address"
        },
        {
          "internalType": "uint256",
          "name": "_contributedTo",
          "type": "uint256"
        }
      ],
      "name": "withdrawFeesAndRewardsForAllRounds",
      "outputs": [],
      "stateMutability": "nonpayable",
      "type": "function"
    }
  ],
  "transactionHash": "0x29325a228a6fc27ae0faae6170c05994bc43c65c3b146da48fa4a63f7bc99b6a",
  "args": [
    "0xc707cFa4D8f1A4618d946580D749C522702D2bf0",
    "0xbDFd060ac349aC8b041D89aC491c89A78b4930E4",
    "0x90992fb4E15ce0C59aEFfb376460Fda4Ee19C879",
    "0x00000000000000000000000000000000000000000000000000000000000000000000000000000000000000000000000000000000000000000000000000000000",
    "0xaAe29B0366299461418F5324a79Afc425BE5ae21",
    "50000000000000000",
    1500000,
    1000000000,
    "/ipfs/QmZdBkzD76TTusernqYosnZKGveHu39muv6ygvqjdEWrrW/metaevidence.json",
    [
      3000,
      7000,
      5000
    ]
  ],
  "numDeployments": 2,
  "solcInputHash": "4879b4b9b27dbf0d49b2bf722eba4eca",
  "bytecode": "0x60a0604052600080546001600160a01b0319163317905534801561002257600080fd5b5060405161433e38038061433e83398101604081905261004191610256565b6001600160a01b038a8116608052600180546001600160a01b03199081168c84161790915560028054909116918a16919091179055600361008288826103b8565b50600580546001600160a01b0319166001600160a01b03881617905560088590556006849055600783905580516009556020810151600a55604080820151600b5560045490517f61606860eb6c87306811e2695215385101daab53bd6ab4e9f9049aead9363c7d906100f5908590610477565b60405180910390a2505050505050505050506104aa565b80516001600160a01b038116811461012357600080fd5b919050565b634e487b7160e01b600052604160045260246000fd5b60005b83811015610159578181015183820152602001610141565b50506000910152565b600082601f83011261017357600080fd5b81516001600160401b038082111561018d5761018d610128565b604051601f8301601f19908116603f011681019082821181831017156101b5576101b5610128565b816040528381528660208588010111156101ce57600080fd5b6101df84602083016020890161013e565b9695505050505050565b600082601f8301126101fa57600080fd5b604051606081016001600160401b038111828210171561021c5761021c610128565b60405280606084018581111561023157600080fd5b845b8181101561024b578051835260209283019201610233565b509195945050505050565b6000806000806000806000806000806101808b8d03121561027657600080fd5b61027f8b61010c565b995061028d60208c0161010c565b985061029b60408c0161010c565b60608c01519098506001600160401b03808211156102b857600080fd5b6102c48e838f01610162565b98506102d260808e0161010c565b975060a08d0151965060c08d0151955060e08d015194506101008d01519150808211156102fe57600080fd5b5061030b8d828e01610162565b92505061031c8c6101208d016101e9565b90509295989b9194979a5092959850565b600181811c9082168061034157607f821691505b60208210810361036157634e487b7160e01b600052602260045260246000fd5b50919050565b601f8211156103b3576000816000526020600020601f850160051c810160208610156103905750805b601f850160051c820191505b818110156103af5782815560010161039c565b5050505b505050565b81516001600160401b038111156103d1576103d1610128565b6103e5816103df845461032d565b84610367565b602080601f83116001811461041a57600084156104025750858301515b600019600386901b1c1916600185901b1785556103af565b600085815260208120601f198616915b828110156104495788860151825594840194600190910190840161042a565b50858210156104675787850151600019600388901b60f8161c191681555b5050505050600190811b01905550565b602081526000825180602084015261049681604085016020870161013e565b601f01601f19169190910160400192915050565b608051613e4f6104ef6000396000818161044c015281816111ea01528181611b470152818161201e015281816123a6015281816127060152612c3c0152613e4f6000f3fe6080604052600436106102e45760003560e01c80638e0d467511610190578063c94828f0116100dc578063ec85635b11610095578063fb0e722b1161006f578063fb0e722b14610939578063fc6f8f1614610959578063fe2dddeb146109a6578063ffa1ad74146109c657600080fd5b8063ec85635b146108c6578063edabc474146108e6578063ef6ec3891461091957600080fd5b8063c94828f01461081a578063cf6e65b71461083a578063d5f3948814610850578063d661dd3114610870578063e4c0aaf414610886578063e742e2ed146108a657600080fd5b8063ba7079ca11610149578063bde80ca711610123578063bde80ca714610745578063be26fc881461079f578063c21ae061146107bf578063c599c66f146107ec57600080fd5b8063ba7079ca146106d2578063bb163782146106f2578063bb2fe65f1461071057600080fd5b80638e0d467514610633578063965394ab146106535780639b3ac99814610669578063a22352e21461067f578063a6a7f0eb1461069f578063a829c3d1146106bf57600080fd5b80634b2f0ea01161024f578063756804c0116102085780637a710491116101e25780637a710491146103a457806384cbc5d4146105c25780638a9bb02a146105e25780638d8b2d7e1461061157600080fd5b8063756804c014610533578063762f1a781461056957806379873f8a1461058957600080fd5b80634b2f0ea0146104815780635082a799146104a45780635d942ac1146104b757806368cb30f5146104cd5780636cc6cde1146104fd5780636cdc090f1461051d57600080fd5b806330873705116102a157806330873705146103ba578063311a6c56146103da578063325df188146103fa578063362c34791461041a57806348f378571461043a5780634aa6a1e41461046e57600080fd5b806305528715146102e95780630c139eb41461030b5780630c340a24146103345780630c7ac7b61461036c5780630dff24d51461038e5780630fa8c7ce146103a4575b600080fd5b3480156102f557600080fd5b506103096103043660046134b7565b6109f7565b005b34801561031757600080fd5b50610321600b5481565b6040519081526020015b60405180910390f35b34801561034057600080fd5b50600154610354906001600160a01b031681565b6040516001600160a01b03909116815260200161032b565b34801561037857600080fd5b50610381610a2f565b60405161032b9190613516565b34801561039a57600080fd5b5061032160085481565b3480156103b057600080fd5b5061032160001981565b3480156103c657600080fd5b506103096103d53660046134b7565b610abd565b3480156103e657600080fd5b506103096103f5366004613529565b610aec565b34801561040657600080fd5b506103096104153660046134b7565b610c6e565b34801561042657600080fd5b50610321610435366004613560565b610c9d565b34801561044657600080fd5b506103547f000000000000000000000000000000000000000000000000000000000000000081565b61030961047c36600461359d565b610f84565b61049461048f366004613529565b6112ec565b604051901515815260200161032b565b6103096104b236600461359d565b611945565b3480156104c357600080fd5b5061032160075481565b3480156104d957600080fd5b506104946104e83660046134b7565b600e6020526000908152604090205460ff1681565b34801561050957600080fd5b50600254610354906001600160a01b031681565b34801561052957600080fd5b5061032160045481565b34801561053f57600080fd5b5061035461054e3660046134b7565b600f602052600090815260409020546001600160a01b031681565b34801561057557600080fd5b506103096105843660046134b7565b611c67565b34801561059557600080fd5b50600954600a54600b5461271060408051948552602085019390935291830152606082015260800161032b565b3480156105ce57600080fd5b506103096105dd3660046135e3565b611c96565b3480156105ee57600080fd5b506106026105fd366004613529565b611d12565b60405161032b939291906136d0565b34801561061d57600080fd5b5061032161062c3660046134b7565b5060001990565b34801561063f57600080fd5b5061030961064e3660046134b7565b611e8a565b34801561065f57600080fd5b50610321600a5481565b34801561067557600080fd5b5061032160095481565b34801561068b57600080fd5b5061032161069a3660046134b7565b611eb9565b3480156106ab57600080fd5b506103096106ba36600461374e565b611f3a565b6103096106cd366004613529565b61201c565b3480156106de57600080fd5b506103096106ed36600461379a565b6124a7565b3480156106fe57600080fd5b5061032161070d3660046134b7565b90565b34801561071c57600080fd5b5061073061072b3660046137d6565b6124ff565b6040805192835290151560208301520161032b565b34801561075157600080fd5b506107826107603660046134b7565b600d60205260009081526040902080546001909101546001600160a01b031682565b604080519283526001600160a01b0390911660208301520161032b565b3480156107ab57600080fd5b506103096107ba36600461359d565b612583565b3480156107cb57600080fd5b506103216107da3660046134b7565b6000908152600d602052604090205490565b3480156107f857600080fd5b5061080c610807366004613802565b6128c0565b60405161032b92919061383b565b34801561082657600080fd5b506103096108353660046134b7565b612a3e565b34801561084657600080fd5b5061032160065481565b34801561085c57600080fd5b50600054610354906001600160a01b031681565b34801561087c57600080fd5b5061032161271081565b34801561089257600080fd5b506103096108a1366004613869565b612a6d565b3480156108b257600080fd5b506103096108c136600461359d565b612ab9565b3480156108d257600080fd5b506103216108e1366004613886565b613004565b3480156108f257600080fd5b5061090661090136600461359d565b613251565b60405161032b97969594939291906138d4565b34801561092557600080fd5b50610309610934366004613869565b613336565b34801561094557600080fd5b50600554610354906001600160a01b031681565b34801561096557600080fd5b506103216109743660046134b7565b6000908152600f6020908152604080832054600c83528184206001600160a01b03909116845290915290206003015490565b3480156109b257600080fd5b506103096109c1366004613886565b613382565b3480156109d257600080fd5b50610381604051806040016040528060058152602001640322e302e360dc1b81525081565b6001546001600160a01b03163314610a2a5760405162461bcd60e51b8152600401610a219061394c565b60405180910390fd5b600a55565b60038054610a3c90613981565b80601f0160208091040260200160405190810160405280929190818152602001828054610a6890613981565b8015610ab55780601f10610a8a57610100808354040283529160200191610ab5565b820191906000526020600020905b815481529060010190602001808311610a9857829003601f168201915b505050505081565b6001546001600160a01b03163314610ae75760405162461bcd60e51b8152600401610a219061394c565b600655565b6000828152600d6020908152604080832080546001820154818652600c85528386206001600160a01b039182168088529552929094206004810154919493929091163314610b7c5760405162461bcd60e51b815260206004820152601760248201527f4f6e6c792061726269747261746f7220616c6c6f7765640000000000000000006044820152606401610a21565b6002815460ff166005811115610b9457610b946138be565b14610bb15760405162461bcd60e51b8152600401610a21906139bb565b6003810180548691600091610bc890600190613a08565b81548110610bd857610bd8613a1b565b906000526020600020906005020190508060040180549050600103610c1b5780600401600081548110610c0d57610c0d613a1b565b906000526020600020015491505b60028301829055825460ff19166003178355604051828152889033907f394027a5fa6e098a1191094d1719d6929b9abc535fcc0c8f448d6a4e756222769060200160405180910390a35050505050505050565b6001546001600160a01b03163314610c985760405162461bcd60e51b8152600401610a219061394c565b600955565b6000848152600f6020908152604080832054600c83528184206001600160a01b039091168085529252822060038101805484919087908110610ce157610ce1613a1b565b6000918252602090912060059091020190506003825460ff166005811115610d0b57610d0b6138be565b14610d4f5760405162461bcd60e51b8152602060048201526014602482015273111a5cdc1d5d19481b9bdd081c995cdbdb1d995960621b6044820152606401610a21565b600085815260018201602052604090205460ff16610d94576001600160a01b038716600090815260028201602090815260408083208884529091529020549350610eea565b6002820154600090815260018201602052604090205460ff16610e80576004810154600110610dc4576000610e79565b80600001600082600401600181548110610de057610de0613a1b565b906000526020600020015481526020019081526020016000205481600001600083600401600081548110610e1657610e16613a1b565b9060005260206000200154815260200190815260200160002054610e3a9190613a31565b60038201546001600160a01b038916600090815260028401602090815260408083208a8452909152902054610e6f9190613a44565b610e799190613a5b565b9350610eea565b84826002015403610eea5760008581526020829052604090205480610ea6576000610ee6565b60038201546001600160a01b038916600090815260028401602090815260408083208a84529091529020548291610edc91613a44565b610ee69190613a5b565b9450505b8315610f79576001600160a01b038716600081815260028301602090815260408083208984529091528082208290555186156108fc0291879190818181858888f1505060408051898152602081018990526001600160a01b038c1694508a93508c92507f54b3cab3cb5c4aca3209db1151caff092e878011202e43a36782d4ebe0b963ae910160405180910390a45b505050949350505050565b6000828152600c602090815260408083206001600160a01b0385168452909152902082906005815460ff166005811115610fc057610fc06138be565b14610fdd5760405162461bcd60e51b8152600401610a21906139bb565b6040805160248082018790526001600160a01b03868116604480850191909152845180850382018152606490940185526020840180516001600160e01b03166305fb2b4f60e51b9081179091526005548551965163a66b327d60e01b815260048101979097526000948701859052909592169163a66b327d9101602060405180830381865afa158015611074573d6000803e3d6000fd5b505050506040513d601f19601f820116820180604052508101906110989190613a7d565b905060006110a5826133de565b9050803410156110f35760405162461bcd60e51b815260206004820152601960248201527853686f756c6420636f76657220617262697472756d2066656560381b6044820152606401610a21565b84546000878152600c602090815260408083206001600160a01b038c168452909152812081815560018101829055600281018290556101009092046001600160f81b0316919061114660038301826133fb565b6004820180546001600160a01b031916905561116660058301600061341f565b50600060069190910181905561117c8334613a08565b604051909150339082156108fc029083906000818181858888f150506040516001600160a01b038d16935085156108fc0292508591506000818181858888f19350505050506000600560009054906101000a90046001600160a01b03166001600160a01b031663679b6ded857f000000000000000000000000000000000000000000000000000000000000000060008933336006546007548f6040518a63ffffffff1660e01b8152600401611238989796959493929190613a96565b60206040518083038185885af1158015611256573d6000803e3d6000fd5b50505050506040513d601f19601f8201168201806040525081019061127b9190613a7d565b60405190915081907fde92b5b7839f4a2c640f5e3bbb66d415458dadc57a487b0c7fa562ed7c9c896f90600090a26040516001600160a01b038b16908c907fe7700735be0b02f71ef1d623678daf36cd936af4c349a22ad9d5a8b217df0dd990600090a35050505050505050505050565b6000828152600c60209081526040808320600f8352818420546001600160a01b0316845290915281206002815460ff16600581111561132d5761132d6138be565b146113725760405162461bcd60e51b81526020600482015260156024820152742737903234b9b83aba32903a379030b83832b0b61760591b6044820152606401610a21565b600181015460048083015460405163afe15cfb60e01b815291820183905260009182916001600160a01b03169063afe15cfb906024016040805180830381865afa1580156113c4573d6000803e3d6000fd5b505050506040513d601f19601f820116820180604052508101906113e89190613af1565b915091508142101580156113fb57508042105b6114405760405162461bcd60e51b815260206004820152601660248201527520b83832b0b6103832b934b7b21034b99037bb32b91760511b6044820152606401610a21565b600484810154604051631c3db16d60e01b815291820185905260009182916001600160a01b031690631c3db16d90602401602060405180830381865afa15801561148e573d6000803e3d6000fd5b505050506040513d601f19601f820116820180604052508101906114b29190613a7d565b90508781036114c5576009549150611547565b600b54612710906114d68686613a08565b6114e09190613a44565b6114ea9190613a5b565b6114f48542613a08565b106115415760405162461bcd60e51b815260206004820152601f60248201527f41707065616c20706572696f64206973206f76657220666f72206c6f736572006044820152606401610a21565b600a5491505b50600385015460009061155c90600190613a08565b9050600086600301828154811061157557611575613a1b565b600091825260208083208c84526001600590930201918201905260409091205490915060ff16156115e85760405162461bcd60e51b815260206004820152601b60248201527f41707065616c2066656520697320616c726561647920706169642e00000000006044820152606401610a21565b60048088015460405163791f8b7360e11b81526000926001600160a01b039092169163f23f16e691611621918b9160058e019101613b92565b602060405180830381865afa15801561163e573d6000803e3d6000fd5b505050506040513d601f19601f820116820180604052508101906116629190613a7d565b905060006127106116738684613a44565b61167d9190613a5b565b6116879083613a31565b60008c8152602085905260408120549192509034906116a69084613a08565b116116c95760008c8152602085905260409020546116c49083613a08565b6116cb565b345b9050336001600160a01b0316858e7fcae597f39a3ad75c2e10d46b031f023c5c2babcd58ca0491b122acda3968d4c08f85604051611713929190918252602082015260400190565b60405180910390a433600090815260028501602090815260408083208f845290915281208054839290611747908490613a31565b909155505060008c8152602085905260408120805483929061176a908490613a31565b909155505060008c81526020859052604090205482116118385760008c815260208590526040812054600386018054919290916117a8908490613a31565b92505081905550836004018c908060018154018082558091505060019003906000526020600020016000909190919091505560018460010160008e815260200190815260200160002060006101000a81548160ff0219169083151502179055508b858e7f39493c1b78d9a13bcc9e1d532fc7faed3889248d93affa811416ce3c6bcb1a6860405160405180910390a45b6004840154600110156118e6576003808b0180546001018155600052840154611862908490613a08565b84600301819055508960040160009054906101000a90046001600160a01b03166001600160a01b03166349912f88848b8d6005016040518463ffffffff1660e01b81526004016118b3929190613b92565b6000604051808303818588803b1580156118cc57600080fd5b505af11580156118e0573d6000803e3d6000fd5b50505050505b60006118f28234613a08565b111561191e57336108fc6119068334613a08565b6040518115909202916000818181858888f150505050505b50505060008981526001909101602052604090205460ff1696505050505050505b92915050565b6000828152600c602090815260408083206001600160a01b0385168452909152902082906003815460ff166005811115611981576119816138be565b146119c55760405162461bcd60e51b8152602060048201526014602482015273111a5cdc1d5d19481b9bdd081c995cdbdb1d995960621b6044820152606401610a21565b600081600201546000036119db576000196119ec565b600182600201546119ec9190613a08565b6040805160248082018990526044808301859052835180840382018152606490930184526020830180516001600160e01b03166306bad43760e51b9081179091526005548451955163a66b327d60e01b81526004810196909652600093860184905295965094929391926001600160a01b03169163a66b327d9101602060405180830381865afa158015611a84573d6000803e3d6000fd5b505050506040513d601f19601f82011682018060405250810190611aa89190613a7d565b90506000611ab5826133de565b905080341015611b035760405162461bcd60e51b815260206004820152601960248201527853686f756c6420636f76657220617262697472756d2066656560381b6044820152606401610a21565b8554600490879060ff1916600183021790555060055460065460075460405163679b6ded60e01b81526000936001600160a01b03169263679b6ded928692611b79927f00000000000000000000000000000000000000000000000000000000000000009288928b92339283928f90600401613a96565b60206040518083038185885af1158015611b97573d6000803e3d6000fd5b50505050506040513d601f19601f82011682018060405250810190611bbc9190613a7d565b60405190915081907fde92b5b7839f4a2c640f5e3bbb66d415458dadc57a487b0c7fa562ed7c9c896f90600090a2604080518b8152602081018890527fba07eb273dd4b62b682a13480e2838bfbd6afab07919d6bcad9156af107f8c41910160405180910390a16000611c2f8334613a08565b1115611c5b57336108fc611c438434613a08565b6040518115909202916000818181858888f150505050505b50505050505050505050565b6001546001600160a01b03163314611c915760405162461bcd60e51b8152600401610a219061394c565b600755565b6001546001600160a01b03163314611cc05760405162461bcd60e51b8152600401610a219061394c565b60048054906000611cd083613bb3565b91905055506004547f61606860eb6c87306811e2695215385101daab53bd6ab4e9f9049aead9363c7d82604051611d079190613516565b60405180910390a250565b6000828152600f6020908152604080832054600c83528184206001600160a01b03909116808552925282206003810180546060949385939092909185919088908110611d6057611d60613a1b565b9060005260206000209060050201905080600401805480602002602001604051908101604052809291908181526020018280548015611dbe57602002820191906000526020600020905b815481526020019060010190808311611daa575b5050506004840154929650505067ffffffffffffffff811115611de357611de36135cd565b604051908082528060200260200182016040528015611e0c578160200160208202803683370190505b50955060005b6004820154811015611e7857816000016000836004018381548110611e3957611e39613a1b565b9060005260206000200154815260200190815260200160002054878281518110611e6557611e65613a1b565b6020908102919091010152600101611e12565b50806003015494505050509250925092565b6001546001600160a01b03163314611eb45760405162461bcd60e51b8152600401610a219061394c565b600855565b60085460025460405163f7434ea960e01b8152600092916001600160a01b03169063f7434ea990611eef90600390600401613bcc565b602060405180830381865afa158015611f0c573d6000803e3d6000fd5b505050506040513d601f19601f82011682018060405250810190611f309190613a7d565b61193f9190613a31565b6000838152600f6020908152604080832054600c83528184206001600160a01b039182168086529352922060048101549192909116611fc557600254604051339187916001600160a01b03909116907fdccf2f8b2cc26eafcd61905cba744cff4b81d14740725f6376390dc6298a6a3c90611fb89089908990613bdf565b60405180910390a4612015565b6004810154604051339187916001600160a01b03909116907fdccf2f8b2cc26eafcd61905cba744cff4b81d14740725f6376390dc6298a6a3c9061200c9089908990613bdf565b60405180910390a45b5050505050565b7f00000000000000000000000000000000000000000000000000000000000000006001600160a01b031661208a5760405162461bcd60e51b8152602060048201526015602482015274121bdb59481c1c9bde1e481a5cc81b9bdd081cd95d605a1b6044820152606401610a21565b6000828152600e602052604090205460ff16156120e95760405162461bcd60e51b815260206004820152601760248201527f4469737075746520616c726561647920637265617465640000000000000000006044820152606401610a21565b6000828152600c60209081526040808320338452909152812090815460ff166005811115612119576121196138be565b146121665760405162461bcd60e51b815260206004820152601d60248201527f4172626974726174696f6e20616c7265616479207265717565737465640000006044820152606401610a21565b6002546004820180546001600160a01b0319166001600160a01b0390921691909117905560058101612199600382613c5f565b5060048054600683015560408051602480820187905233604480840191909152606480840188905284518085039091018152608490930184526020830180516001600160e01b031663666b746960e11b9081179091526005548451955163a66b327d60e01b815296870195909552600092860183905294929391926001600160a01b039092169163a66b327d9101602060405180830381865afa158015612244573d6000803e3d6000fd5b505050506040513d601f19601f820116820180604052508101906122689190613a7d565b90506000612275826133de565b60025460405163f7434ea960e01b81529192506000916001600160a01b039091169063f7434ea9906122ac90600390600401613bcc565b602060405180830381865afa1580156122c9573d6000803e3d6000fd5b505050506040513d601f19601f820116820180604052508101906122ed9190613a7d565b90506122f98282613a31565b3410156123405760405162461bcd60e51b81526020600482015260156024820152744465706f7369742076616c756520746f6f206c6f7760581b6044820152606401610a21565b855460ff191660011786556123558234613a08565b8660000160016101000a8154816001600160f81b0302191690836001600160f81b031602179055506000600560009054906101000a90046001600160a01b03166001600160a01b031663679b6ded847f000000000000000000000000000000000000000000000000000000000000000060008833336006546007548e6040518a63ffffffff1660e01b81526004016123f4989796959493929190613a96565b60206040518083038185885af1158015612412573d6000803e3d6000fd5b50505050506040513d601f19601f820116820180604052508101906124379190613a7d565b60405190915081907fde92b5b7839f4a2c640f5e3bbb66d415458dadc57a487b0c7fa562ed7c9c896f90600090a260405188815233908a907f2067d1b3170fe803dd001b95b04f9d372eb9c3e5a48ed131a62962a7300bdb209060200160405180910390a3505050505050505050565b6001546001600160a01b031633146124d15760405162461bcd60e51b8152600401610a219061394c565b600280546001600160a01b0319166001600160a01b03851617905560036124f9828483613d3c565b50505050565b6000838152600f6020908152604080832054600c83528184206001600160a01b03909116808552925282206003810180548493929184918890811061254657612546613a1b565b600091825260208083209883526005909102909701808852604080832054600190920190985296902054959860ff90961697509495505050505050565b600554604080516373c6754960e11b815290516000926001600160a01b03169163e78cea929160048083019260209291908290030181865afa1580156125cd573d6000803e3d6000fd5b505050506040513d601f19601f820116820180604052508101906125f19190613dfc565b9050336001600160a01b038216146126385760405162461bcd60e51b815260206004820152600a6024820152694e4f545f42524944474560b01b6044820152606401610a21565b6000816001600160a01b031663ab5d89436040518163ffffffff1660e01b8152600401602060405180830381865afa158015612678573d6000803e3d6000fd5b505050506040513d601f19601f8201168201806040525081019061269c9190613dfc565b90506000816001600160a01b03166380648b026040518163ffffffff1660e01b8152600401602060405180830381865afa1580156126de573d6000803e3d6000fd5b505050506040513d601f19601f820116820180604052508101906127029190613dfc565b90507f00000000000000000000000000000000000000000000000000000000000000006001600160a01b0316816001600160a01b0316146127855760405162461bcd60e51b815260206004820181905260248201527f43616e206f6e6c792062652063616c6c656420627920486f6d652070726f78796044820152606401610a21565b6000858152600c602090815260408083206001600160a01b0388168452909152902085906001815460ff1660058111156127c1576127c16138be565b146127de5760405162461bcd60e51b8152600401610a21906139bb565b80546000838152600c602090815260408083206001600160a01b038b168452909152812081815560018101829055600281018290556101009092046001600160f81b0316919061283160038301826133fb565b6004820180546001600160a01b031916905561285160058301600061341f565b5060006006919091018190556040516001600160a01b0389169183156108fc02918491818181858888f150506040516001600160a01b038b1693508b92507fe7700735be0b02f71ef1d623678daf36cd936af4c349a22ad9d5a8b217df0dd99150600090a35050505050505050565b6000838152600f6020908152604080832054600c83528184206001600160a01b03909116808552925282206003810180546060948594939290918890811061290a5761290a613a1b565b906000526020600020906005020190508060040180548060200260200160405190810160405280929190818152602001828054801561296857602002820191906000526020600020905b815481526020019060010190808311612954575b5050506004840154929750505067ffffffffffffffff81111561298d5761298d6135cd565b6040519080825280602002602001820160405280156129b6578160200160208202803683370190505b50935060005b8451811015612a32576001600160a01b0387166000908152600283016020526040812087519091908890849081106129f6576129f6613a1b565b6020026020010151815260200190815260200160002054858281518110612a1f57612a1f613a1b565b60209081029190910101526001016129bc565b50505050935093915050565b6001546001600160a01b03163314612a685760405162461bcd60e51b8152600401610a219061394c565b600b55565b6001546001600160a01b03163314612a975760405162461bcd60e51b8152600401610a219061394c565b600180546001600160a01b0319166001600160a01b0392909216919091179055565b600554604080516373c6754960e11b815290516000926001600160a01b03169163e78cea929160048083019260209291908290030181865afa158015612b03573d6000803e3d6000fd5b505050506040513d601f19601f82011682018060405250810190612b279190613dfc565b9050336001600160a01b03821614612b6e5760405162461bcd60e51b815260206004820152600a6024820152694e4f545f42524944474560b01b6044820152606401610a21565b6000816001600160a01b031663ab5d89436040518163ffffffff1660e01b8152600401602060405180830381865afa158015612bae573d6000803e3d6000fd5b505050506040513d601f19601f82011682018060405250810190612bd29190613dfc565b90506000816001600160a01b03166380648b026040518163ffffffff1660e01b8152600401602060405180830381865afa158015612c14573d6000803e3d6000fd5b505050506040513d601f19601f82011682018060405250810190612c389190613dfc565b90507f00000000000000000000000000000000000000000000000000000000000000006001600160a01b0316816001600160a01b031614612cbb5760405162461bcd60e51b815260206004820181905260248201527f43616e206f6e6c792062652063616c6c656420627920486f6d652070726f78796044820152606401610a21565b6000858152600c602090815260408083206001600160a01b0388168452909152902085906001815460ff166005811115612cf757612cf76138be565b14612d145760405162461bcd60e51b8152600401610a21906139bb565b60048082015460405163f7434ea960e01b81526000926001600160a01b039092169163f7434ea991612d4b91600587019101613bcc565b602060405180830381865afa158015612d68573d6000803e3d6000fd5b505050506040513d601f19601f82011682018060405250810190612d8c9190613a7d565b825490915061010090046001600160f81b03168111612fb85760048083015460405163c13517e160e01b81526001600160a01b039091169163c13517e1918491612ddf9160001991600589019101613b92565b60206040518083038185885af193505050508015612e1a575060408051601f3d908101601f19168201909252612e1791810190613a7d565b60015b612e6457815460ff191660051782556040516001600160a01b0388169089907f9beda0c81abc1c65da7685f113195974dfddb781dfde6263e5a1b13a5356ffad90600090a3612ffa565b6000818152600d60209081526040808320878155600180820180546001600160a01b038f166001600160a01b031991821681179092558a8752600e8652848720805460ff1916909317909255600f909452918420805490921690921790558454909190612ee19085906001600160f81b0361010090910416613a08565b600286556001808701859055600387018054909101815560005290508015612f29576040516001600160a01b038b169082156108fc029083906000818181858888f150505050505b828a6001600160a01b03168c7fcf9bcbc2efae51060af73ef64119281007f63eada739f19c41c181d8350fa81460405160405180910390a460048501546006860154604080519182526020820189905285926001600160a01b0316917f74baab670a4015ab2f1b467c5252a96141a2573f2908e58a92081e80d3cfde3d910160405180910390a3505050612ffa565b815460ff191660051782556040516001600160a01b0388169089907f9beda0c81abc1c65da7685f113195974dfddb781dfde6263e5a1b13a5356ffad90600090a35b5050505050505050565b6000838152600f6020908152604080832054600c83528184206001600160a01b03909116808552925282206003815460ff166005811115613047576130476138be565b101561305457505061324a565b6002810154600382015460005b8181101561324457600084600301828154811061308057613080613a1b565b600091825260208083208b84526001600590930201918201905260409091205490915060ff166130e1576001600160a01b038916600090815260028201602090815260408083208b84529091529020546130da9088613a31565b965061323b565b600084815260018201602052604090205460ff166131cb57600481015460011061310c5760006131c1565b8060000160008260040160018154811061312857613128613a1b565b90600052602060002001548152602001908152602001600020548160000160008360040160008154811061315e5761315e613a1b565b90600052602060002001548152602001908152602001600020546131829190613a31565b60038201546001600160a01b038b16600090815260028401602090815260408083208d84529091529020546131b79190613a44565b6131c19190613a5b565b6130da9088613a31565b87840361323b57600088815260208290526040902054806131ed57600061322d565b60038201546001600160a01b038b16600090815260028401602090815260408083208d8452909152902054829161322391613a44565b61322d9190613a5b565b6132379089613a31565b9750505b50600101613061565b50505050505b9392505050565b600c6020908152600092835260408084209091529082529020805460018201546002830154600484015460058501805460ff8616966101009096046001600160f81b0316956001600160a01b039093169291906132ad90613981565b80601f01602080910402602001604051908101604052809291908181526020018280546132d990613981565b80156133265780601f106132fb57610100808354040283529160200191613326565b820191906000526020600020905b81548152906001019060200180831161330957829003601f168201915b5050505050908060060154905087565b6001546001600160a01b031633146133605760405162461bcd60e51b8152600401610a219061394c565b600580546001600160a01b0319166001600160a01b0392909216919091179055565b6000838152600f6020908152604080832054600c83528184206001600160a01b0390911680855292528220600381015491929091905b818110156133d5576133cc87878388610c9d565b506001016133b8565b50505050505050565b60006007546006546133f09190613a44565b611f30600084613a31565b508054600082556005029060005260206000209081019061341c9190613459565b50565b50805461342b90613981565b6000825580601f1061343b575050565b601f01602090049060005260206000209081019061341c9190613484565b80821115613480576000600382018190556134776004830182613499565b50600501613459565b5090565b5b808211156134805760008155600101613485565b508054600082559060005260206000209081019061341c9190613484565b6000602082840312156134c957600080fd5b5035919050565b6000815180845260005b818110156134f6576020818501810151868301820152016134da565b506000602082860101526020601f19601f83011685010191505092915050565b60208152600061324a60208301846134d0565b6000806040838503121561353c57600080fd5b50508035926020909101359150565b6001600160a01b038116811461341c57600080fd5b6000806000806080858703121561357657600080fd5b8435935060208501356135888161354b565b93969395505050506040820135916060013590565b600080604083850312156135b057600080fd5b8235915060208301356135c28161354b565b809150509250929050565b634e487b7160e01b600052604160045260246000fd5b6000602082840312156135f557600080fd5b813567ffffffffffffffff8082111561360d57600080fd5b818401915084601f83011261362157600080fd5b813581811115613633576136336135cd565b604051601f8201601f19908116603f0116810190838211818310171561365b5761365b6135cd565b8160405282815287602084870101111561367457600080fd5b826020860160208301376000928101602001929092525095945050505050565b60008151808452602080850194506020840160005b838110156136c5578151875295820195908201906001016136a9565b509495945050505050565b6060815260006136e36060830186613694565b84602084015282810360408401526136fb8185613694565b9695505050505050565b60008083601f84011261371757600080fd5b50813567ffffffffffffffff81111561372f57600080fd5b60208301915083602082850101111561374757600080fd5b9250929050565b60008060006040848603121561376357600080fd5b83359250602084013567ffffffffffffffff81111561378157600080fd5b61378d86828701613705565b9497909650939450505050565b6000806000604084860312156137af57600080fd5b83356137ba8161354b565b9250602084013567ffffffffffffffff81111561378157600080fd5b6000806000606084860312156137eb57600080fd5b505081359360208301359350604090920135919050565b60008060006060848603121561381757600080fd5b833592506020840135915060408401356138308161354b565b809150509250925092565b60408152600061384e6040830185613694565b82810360208401526138608185613694565b95945050505050565b60006020828403121561387b57600080fd5b813561324a8161354b565b60008060006060848603121561389b57600080fd5b8335925060208401356138ad8161354b565b929592945050506040919091013590565b634e487b7160e01b600052602160045260246000fd5b6000600689106138f457634e487b7160e01b600052602160045260246000fd5b8882526001600160f81b038816602083015260408201879052606082018690526001600160a01b038516608083015260e060a08301819052613938908301856134d0565b90508260c083015298975050505050505050565b6020808252818101527f5468652063616c6c6572206d7573742062652074686520676f7665726e6f722e604082015260600190565b600181811c9082168061399557607f821691505b6020821081036139b557634e487b7160e01b600052602260045260246000fd5b50919050565b6020808252601a908201527f496e76616c6964206172626974726174696f6e20737461747573000000000000604082015260600190565b634e487b7160e01b600052601160045260246000fd5b8181038181111561193f5761193f6139f2565b634e487b7160e01b600052603260045260246000fd5b8082018082111561193f5761193f6139f2565b808202811582820484141761193f5761193f6139f2565b600082613a7857634e487b7160e01b600052601260045260246000fd5b500490565b600060208284031215613a8f57600080fd5b5051919050565b600061010060018060a01b03808c1684528a602085015289604085015280891660608501528088166080850152508560a08401528460c08401528060e0840152613ae2818401856134d0565b9b9a5050505050505050505050565b60008060408385031215613b0457600080fd5b505080516020909101519092909150565b60008154613b2281613981565b808552602060018381168015613b3f5760018114613b5957613b87565b60ff1985168884015283151560051b880183019550613b87565b866000528260002060005b85811015613b7f5781548a8201860152908301908401613b64565b890184019650505b505050505092915050565b828152604060208201526000613bab6040830184613b15565b949350505050565b600060018201613bc557613bc56139f2565b5060010190565b60208152600061324a6020830184613b15565b60208152816020820152818360408301376000818301604090810191909152601f909201601f19160101919050565b601f821115613c5a576000816000526020600020601f850160051c81016020861015613c375750805b601f850160051c820191505b81811015613c5657828155600101613c43565b5050505b505050565b818103613c6a575050565b613c748254613981565b67ffffffffffffffff811115613c8c57613c8c6135cd565b613ca081613c9a8454613981565b84613c0e565b6000601f821160018114613cd45760008315613cbc5750848201545b600019600385901b1c1916600184901b178455612015565b600085815260209020601f19841690600086815260209020845b83811015613d0e5782860154825560019586019590910190602001613cee565b5085831015613d2c5781850154600019600388901b60f8161c191681555b5050505050600190811b01905550565b67ffffffffffffffff831115613d5457613d546135cd565b613d6883613d628354613981565b83613c0e565b6000601f841160018114613d9c5760008515613d845750838201355b600019600387901b1c1916600186901b178355612015565b600083815260209020601f19861690835b82811015613dcd5786850135825560209485019460019092019101613dad565b5086821015613dea5760001960f88860031b161c19848701351681555b505060018560011b0183555050505050565b600060208284031215613e0e57600080fd5b815161324a8161354b56fea2646970667358221220146e6804967a86239cd29dd5400068f6ef4019ccdae239bbfc35a0900b81ce6964736f6c63430008190033",
  "devdoc": {
    "details": "This contract is meant to be deployed to the Ethereum chains where Kleros is deployed.",
    "events": {
      "ArbitrationCanceled(bytes32,address)": {
        "params": {
          "_questionID": "The ID of the question with the request for arbitration.",
          "_requester": "The address of the arbitration requester."
        }
      },
      "ArbitrationCreated(bytes32,address,uint256)": {
        "params": {
          "_disputeID": "The ID of the dispute.",
          "_questionID": "The ID of the question with the request for arbitration.",
          "_requester": "The address of the arbitration requester."
        }
      },
      "ArbitrationFailed(bytes32,address)": {
        "details": "This will happen if there is an increase in the arbitration fees between the time the arbitration is made and the time it is acknowledged.",
        "params": {
          "_questionID": "The ID of the question with the request for arbitration.",
          "_requester": "The address of the arbitration requester."
        }
      },
      "ArbitrationRequested(bytes32,address,uint256)": {
        "params": {
          "_maxPrevious": "The maximum value of the current bond for the question. The arbitration request will get rejected if the current bond is greater than _maxPrevious. If set to 0, _maxPrevious is ignored.",
          "_questionID": "The ID of the question with the request for arbitration.",
          "_requester": "The address of the arbitration requester."
        }
      },
      "Contribution(uint256,uint256,uint256,address,uint256)": {
        "details": "Raised when a contribution is made, inside fundAppeal function.",
        "params": {
          "_amount": "Contribution amount.",
          "_contributor": "Caller of fundAppeal function.",
          "_localDisputeID": "Identifier of a dispute in scope of arbitrable contract. Arbitrator ids can be translated to local ids via externalIDtoLocalID.",
          "_round": "The round number the contribution was made to.",
          "ruling": "Indicates the ruling option which got the contribution."
        }
      },
      "Dispute(address,uint256,uint256,uint256)": {
        "details": "To be emitted when a dispute is created to link the correct meta-evidence to the disputeID.",
        "params": {
          "_arbitrator": "The arbitrator of the contract.",
          "_disputeID": "ID of the dispute in the Arbitrator contract.",
          "_evidenceGroupID": "Unique identifier of the evidence group that is linked to this dispute.",
          "_metaEvidenceID": "Unique identifier of meta-evidence."
        }
      },
      "Evidence(address,uint256,address,string)": {
        "details": "To be raised when evidence is submitted. Should point to the resource (evidences are not to be stored on chain due to gas considerations).",
        "params": {
          "_arbitrator": "The arbitrator of the contract.",
          "_evidence": "IPFS path to evidence, example: '/ipfs/Qmarwkf7C9RuzDEJNnarT3WZ7kem5bk8DZAzx78acJjMFH/evidence.json'",
          "_evidenceGroupID": "Unique identifier of the evidence group the evidence belongs to.",
          "_party": "The address of the party submiting the evidence. Note that 0x0 refers to evidence not submitted by any party."
        }
      },
      "MetaEvidence(uint256,string)": {
        "details": "To be emitted when meta-evidence is submitted.",
        "params": {
          "_evidence": "IPFS path to metaevidence, example: '/ipfs/Qmarwkf7C9RuzDEJNnarT3WZ7kem5bk8DZAzx78acJjMFH/metaevidence.json'",
          "_metaEvidenceID": "Unique identifier of meta-evidence."
        }
      },
      "Ruling(address,uint256,uint256)": {
        "details": "To be raised when a ruling is given.",
        "params": {
          "_arbitrator": "The arbitrator giving the ruling.",
          "_disputeID": "ID of the dispute in the Arbitrator contract.",
          "_ruling": "The ruling which was given."
        }
      },
      "RulingFunded(uint256,uint256,uint256)": {
        "details": "To be raised when a ruling option is fully funded for appeal.",
        "params": {
          "_localDisputeID": "Identifier of a dispute in scope of arbitrable contract. Arbitrator ids can be translated to local ids via externalIDtoLocalID.",
          "_round": "Number of the round this ruling option was fully funded in.",
          "_ruling": "The ruling option which just got fully funded."
        }
      },
      "RulingRelayed(bytes32,bytes32)": {
        "params": {
          "_questionID": "The ID of the question with the ruling to relay.",
          "_ruling": "Ruling converted into Realitio format."
        }
      },
      "Withdrawal(uint256,uint256,uint256,address,uint256)": {
        "details": "Raised when a contributor withdraws non-zero value.",
        "params": {
          "_contributor": "The beneficiary of withdrawal.",
          "_localDisputeID": "Identifier of a dispute in scope of arbitrable contract. Arbitrator ids can be translated to local ids via externalIDtoLocalID.",
          "_reward": "Total amount of withdrawal, consists of reimbursed deposits plus rewards.",
          "_round": "The round number the withdrawal was made from.",
          "_ruling": "Indicates the ruling option which contributor gets rewards from."
        }
      }
    },
    "kind": "dev",
    "methods": {
      "changeArbitrator(address,bytes)": {
        "params": {
          "_arbitrator": "New arbitrator address.",
          "_arbitratorExtraData": "Extradata for the arbitrator "
        }
      },
      "changeGasPriceBid(uint256)": {
        "params": {
          "_gasPriceBid": "New L2 gas price bid."
        }
      },
      "changeGovernor(address)": {
        "params": {
          "_governor": "New governor address."
        }
      },
      "changeInbox(address)": {
        "params": {
          "_inbox": "New inbox address."
        }
      },
      "changeL2GasLimit(uint256)": {
        "params": {
          "_l2GasLimit": "New L2 gas limit."
        }
      },
      "changeLoserAppealPeriodMultiplier(uint256)": {
        "params": {
          "_loserAppealPeriodMultiplier": "New loser multiplier for appeal perido."
        }
      },
      "changeLoserMultiplier(uint256)": {
        "params": {
          "_loserMultiplier": "New loser multiplier."
        }
      },
      "changeMetaevidence(string)": {
        "params": {
          "_metaEvidence": "Metaevidence URI."
        }
      },
      "changeSurplus(uint256)": {
        "params": {
          "_surplus": "New surplus value."
        }
      },
      "changeWinnerMultiplier(uint256)": {
        "params": {
          "_winnerMultiplier": "New winner multiplier."
        }
      },
      "constructor": {
        "params": {
          "_arbitrator": "Arbitrator contract address.",
          "_arbitratorExtraData": "The extra data used to raise a dispute in the arbitrator.",
          "_gasPriceBid": "Max gas price L2.",
          "_governor": "Governor of the contract.",
          "_homeProxy": "Proxy on L2.",
          "_inbox": "L2 inbox.",
          "_l2GasLimit": "L2 gas limit ",
          "_metaEvidence": "The URI of the meta evidence file.",
          "_multipliers": "Appeal multipliers:  - Multiplier for calculating the appeal cost of the winning answer.  - Multiplier for calculating the appeal cost of the losing answer.  - Multiplier for calculating the appeal period for the losing answer.",
          "_surplusAmount": "The surplus amount to cover Arbitrum fees."
        }
      },
      "externalIDtoLocalID(uint256)": {
        "params": {
          "_externalDisputeID": "Dispute id as in arbitrator side."
        },
        "returns": {
          "_0": "localDisputeID Dispute id as in arbitrable contract."
        }
      },
      "fundAppeal(uint256,uint256)": {
        "params": {
          "_answer": "One of the possible rulings the arbitrator can give that the funder considers to be the correct answer to the question. Note that the answer has Kleros denomination, meaning that it has '+1' offset compared to Realitio format. Also note that '0' answer can be funded.",
          "_arbitrationID": "The ID of the arbitration, which is questionID cast into uint256."
        },
        "returns": {
          "_0": "Whether the answer was fully funded or not."
        }
      },
      "getContributionsToSuccessfulFundings(uint256,uint256,address)": {
        "params": {
          "_arbitrationID": "The ID of the arbitration.",
          "_contributor": "The address whose contributions to query.",
          "_round": "The round to query."
        },
        "returns": {
          "contributions": "The amount contributed to each funded answer by the contributor.",
          "fundedAnswers": "IDs of the answers that are fully funded."
        }
      },
      "getDisputeFee(bytes32)": {
        "returns": {
          "_0": "The fee to create a dispute."
        }
      },
      "getFundingStatus(uint256,uint256,uint256)": {
        "params": {
          "_answer": "The answer choice to get funding status for.",
          "_arbitrationID": "The ID of the arbitration.",
          "_round": "The round to query."
        },
        "returns": {
          "fullyFunded": "Whether the answer is fully funded or not.",
          "raised": "The amount paid for this answer."
        }
      },
      "getMultipliers()": {
        "returns": {
          "divisor": "Multiplier divisor.",
          "loser": "Losers stake multiplier.",
          "loserAppealPeriod": "Multiplier for calculating an appeal period duration for the losing side.",
          "winner": "Winners stake multiplier."
        }
      },
      "getNumberOfRounds(uint256)": {
        "params": {
          "_arbitrationID": "The ID of the arbitration related to the question."
        },
        "returns": {
          "_0": "The number of rounds."
        }
      },
      "getRoundInfo(uint256,uint256)": {
        "params": {
          "_arbitrationID": "The ID of the arbitration.",
          "_round": "The round to query."
        },
        "returns": {
          "feeRewards": "The amount of fees that will be used as rewards.",
          "fundedAnswers": "IDs of fully funded answers.",
          "paidFees": "The amount of fees paid for each fully funded answer."
        }
      },
      "getTotalWithdrawableAmount(uint256,address,uint256)": {
        "details": "This function is O(n) where n is the total number of rounds.This could exceed the gas limit, therefore this function should be used only as a utility and not be relied upon by other contracts.",
        "params": {
          "_arbitrationID": "The ID of the arbitration.",
          "_beneficiary": "The contributor for which to query.",
          "_contributedTo": "Answer that received contributions from contributor."
        },
        "returns": {
          "sum": "The total amount available to withdraw."
        }
      },
      "handleFailedDisputeCreation(bytes32,address)": {
        "params": {
          "_questionID": "The ID of the question.",
          "_requester": "The address of the arbitration requester."
        }
      },
      "numberOfRulingOptions(uint256)": {
        "returns": {
          "_0": "count The number of ruling options."
        }
      },
      "questionIDToArbitrationID(bytes32)": {
        "params": {
          "_questionID": "The ID of the question."
        },
        "returns": {
          "_0": "The ID of the arbitration."
        }
      },
      "receiveArbitrationAcknowledgement(bytes32,address)": {
        "params": {
          "_questionID": "The ID of the question.",
          "_requester": "The requester."
        }
      },
      "receiveArbitrationCancelation(bytes32,address)": {
        "params": {
          "_questionID": "The ID of the question.",
          "_requester": "The requester."
        }
      },
      "relayRule(bytes32,address)": {
        "params": {
          "_questionID": "The ID of the question.",
          "_requester": "The address of the arbitration requester."
        }
      },
      "requestArbitration(bytes32,uint256)": {
        "params": {
          "_maxPrevious": "The maximum value of the current bond for the question. The arbitration request will get rejected if the current bond is greater than _maxPrevious. If set to 0, _maxPrevious is ignored.",
          "_questionID": "The ID of the question."
        }
      },
      "rule(uint256,uint256)": {
        "details": "Accounts for the situation where the winner loses a case due to paying less appeal fees than expected.",
        "params": {
          "_disputeID": "The ID of the dispute in the ERC792 arbitrator.",
          "_ruling": "The ruling given by the arbitrator."
        }
      },
      "submitEvidence(uint256,string)": {
        "params": {
          "_arbitrationID": "The ID of the arbitration related to the question.",
          "_evidenceURI": "Link to evidence."
        }
      },
      "withdrawFeesAndRewards(uint256,address,uint256,uint256)": {
        "params": {
          "_answer": "The answer to query the reward from.",
          "_arbitrationID": "The ID of the arbitration.",
          "_beneficiary": "The address to send reward to.",
          "_round": "The round from which to withdraw."
        },
        "returns": {
          "reward": "The withdrawn amount."
        }
      },
      "withdrawFeesAndRewardsForAllRounds(uint256,address,uint256)": {
        "details": "This function is O(n) where n is the total number of rounds. Arbitration cost of subsequent rounds is `A(n) = 2A(n-1) + 1`.      So because of this exponential growth of costs, you can assume n is less than 10 at all times.",
        "params": {
          "_arbitrationID": "The ID of the arbitration.",
          "_beneficiary": "The address that made contributions.",
          "_contributedTo": "Answer that received contributions from contributor."
        }
      }
    },
    "title": "Arbitration proxy for Realitio on Ethereum side (A.K.A. the Foreign Chain).",
    "version": 1
  },
  "userdoc": {
    "events": {
      "ArbitrationCanceled(bytes32,address)": {
        "notice": "Should be emitted when the arbitration is canceled by the Home Chain."
      },
      "ArbitrationCreated(bytes32,address,uint256)": {
        "notice": "Should be emitted when the dispute is created."
      },
      "ArbitrationFailed(bytes32,address)": {
        "notice": "Should be emitted when the dispute could not be created."
      },
      "ArbitrationRequested(bytes32,address,uint256)": {
        "notice": "Should be emitted when the arbitration is requested."
      },
      "RulingRelayed(bytes32,bytes32)": {
        "notice": "Should be emitted when the ruling is relayed to home proxy."
      }
    },
    "kind": "user",
    "methods": {
      "changeArbitrator(address,bytes)": {
        "notice": "Changes the arbitrator and extradata. The arbitrator is trusted to support appeal period and not reenter. Note avoid changing arbitrator if there is an active arbitration request in Requested phase, otherwise evidence submitted during this phase will be submitted to the new arbitrator, while arbitration request will be processed by the old one. "
      },
      "changeGasPriceBid(uint256)": {
        "notice": "Changes the L2 gas price bid value."
      },
      "changeGovernor(address)": {
        "notice": "Changes the governor of the contract."
      },
      "changeInbox(address)": {
        "notice": "Changes the address of Arbitrum inbox contract. Note avoid changing the address if there is an active L2->L1 message being processed since the new inbox will most likely reference a new bridge address thus making onlyL2Bridge modifier fail."
      },
      "changeL2GasLimit(uint256)": {
        "notice": "Changes the L2 gas limit value."
      },
      "changeLoserAppealPeriodMultiplier(uint256)": {
        "notice": "Changes loser multiplier for appeal period."
      },
      "changeLoserMultiplier(uint256)": {
        "notice": "Changes loser multiplier value."
      },
      "changeMetaevidence(string)": {
        "notice": "Updates the meta evidence used for disputes."
      },
      "changeSurplus(uint256)": {
        "notice": "Changes the surplus amount to cover the arbitrum fees."
      },
      "changeWinnerMultiplier(uint256)": {
        "notice": "Changes winner multiplier value."
      },
      "constructor": {
        "notice": "Creates an arbitration proxy on the foreign chain (L1)."
      },
      "externalIDtoLocalID(uint256)": {
        "notice": "Maps external (arbitrator side) dispute id to local (arbitrable) dispute id."
      },
      "fundAppeal(uint256,uint256)": {
        "notice": "Takes up to the total amount required to fund an answer. Reimburses the rest. Creates an appeal if at least two answers are funded."
      },
      "getContributionsToSuccessfulFundings(uint256,uint256,address)": {
        "notice": "Gets contributions to the answers that are fully funded."
      },
      "getDisputeFee(bytes32)": {
        "notice": "Gets the fee to create a dispute."
      },
      "getFundingStatus(uint256,uint256,uint256)": {
        "notice": "Gets the information of a round of a question for a specific answer choice."
      },
      "getMultipliers()": {
        "notice": "Returns stake multipliers."
      },
      "getNumberOfRounds(uint256)": {
        "notice": "Gets the number of rounds of the specific question."
      },
      "getRoundInfo(uint256,uint256)": {
        "notice": "Gets the information of a round of a question."
      },
      "getTotalWithdrawableAmount(uint256,address,uint256)": {
        "notice": "Returns the sum of withdrawable amount."
      },
      "handleFailedDisputeCreation(bytes32,address)": {
        "notice": "Cancels the arbitration in case the dispute could not be created. Requires a small deposit to cover arbitrum fees."
      },
      "numberOfRulingOptions(uint256)": {
        "notice": "Returns number of possible ruling options. Valid rulings are [0, return value]."
      },
      "questionIDToArbitrationID(bytes32)": {
        "notice": "Casts question ID into uint256 thus returning the related arbitration ID."
      },
      "receiveArbitrationAcknowledgement(bytes32,address)": {
        "notice": "Receives the acknowledgement of the arbitration request for the given question and requester. TRUSTED."
      },
      "receiveArbitrationCancelation(bytes32,address)": {
        "notice": "Receives the cancelation of the arbitration request for the given question and requester. TRUSTED."
      },
      "relayRule(bytes32,address)": {
        "notice": "Relays the ruling to home proxy. Requires a small deposit to cover arbitrum fees."
      },
      "requestArbitration(bytes32,uint256)": {
        "notice": "Requests arbitration for the given question and contested answer."
      },
      "rule(uint256,uint256)": {
        "notice": "Rules a specified dispute. Can only be called by the arbitrator."
      },
      "submitEvidence(uint256,string)": {
        "notice": "Allows to submit evidence for a particular question."
      },
      "withdrawFeesAndRewards(uint256,address,uint256,uint256)": {
        "notice": "Sends the fee stake rewards and reimbursements proportional to the contributions made to the winner of a dispute. Reimburses contributions if there is no winner."
      },
      "withdrawFeesAndRewardsForAllRounds(uint256,address,uint256)": {
        "notice": "Allows to withdraw any rewards or reimbursable fees for all rounds at once."
      }
    },
    "version": 1
  },
  "storageLayout": {
    "storage": [
      {
        "astId": 585,
        "contract": "src/RealitioForeignProxyArb.sol:RealitioForeignProxyArb",
        "label": "deployer",
        "offset": 0,
        "slot": "0",
        "type": "t_address"
      },
      {
        "astId": 589,
        "contract": "src/RealitioForeignProxyArb.sol:RealitioForeignProxyArb",
        "label": "governor",
        "offset": 0,
        "slot": "1",
        "type": "t_address"
      },
      {
        "astId": 592,
        "contract": "src/RealitioForeignProxyArb.sol:RealitioForeignProxyArb",
        "label": "arbitrator",
        "offset": 0,
        "slot": "2",
        "type": "t_contract(IArbitrator)454"
      },
      {
        "astId": 594,
        "contract": "src/RealitioForeignProxyArb.sol:RealitioForeignProxyArb",
        "label": "arbitratorExtraData",
        "offset": 0,
        "slot": "3",
        "type": "t_bytes_storage"
      },
      {
        "astId": 596,
        "contract": "src/RealitioForeignProxyArb.sol:RealitioForeignProxyArb",
        "label": "metaEvidenceUpdates",
        "offset": 0,
        "slot": "4",
        "type": "t_uint256"
      },
      {
        "astId": 599,
        "contract": "src/RealitioForeignProxyArb.sol:RealitioForeignProxyArb",
        "label": "inbox",
        "offset": 0,
        "slot": "5",
        "type": "t_contract(IInbox)3544"
      },
      {
        "astId": 601,
        "contract": "src/RealitioForeignProxyArb.sol:RealitioForeignProxyArb",
        "label": "l2GasLimit",
        "offset": 0,
        "slot": "6",
        "type": "t_uint256"
      },
      {
        "astId": 603,
        "contract": "src/RealitioForeignProxyArb.sol:RealitioForeignProxyArb",
        "label": "gasPriceBid",
        "offset": 0,
        "slot": "7",
        "type": "t_uint256"
      },
      {
        "astId": 605,
        "contract": "src/RealitioForeignProxyArb.sol:RealitioForeignProxyArb",
        "label": "surplusAmount",
        "offset": 0,
        "slot": "8",
        "type": "t_uint256"
      },
      {
        "astId": 607,
        "contract": "src/RealitioForeignProxyArb.sol:RealitioForeignProxyArb",
        "label": "winnerMultiplier",
        "offset": 0,
        "slot": "9",
        "type": "t_uint256"
      },
      {
        "astId": 609,
        "contract": "src/RealitioForeignProxyArb.sol:RealitioForeignProxyArb",
        "label": "loserMultiplier",
        "offset": 0,
        "slot": "10",
        "type": "t_uint256"
      },
      {
        "astId": 611,
        "contract": "src/RealitioForeignProxyArb.sol:RealitioForeignProxyArb",
        "label": "loserAppealPeriodMultiplier",
        "offset": 0,
        "slot": "11",
        "type": "t_uint256"
      },
      {
        "astId": 618,
        "contract": "src/RealitioForeignProxyArb.sol:RealitioForeignProxyArb",
        "label": "arbitrationRequests",
        "offset": 0,
        "slot": "12",
        "type": "t_mapping(t_uint256,t_mapping(t_address,t_struct(ArbitrationRequest)556_storage))"
      },
      {
        "astId": 623,
        "contract": "src/RealitioForeignProxyArb.sol:RealitioForeignProxyArb",
        "label": "disputeIDToDisputeDetails",
        "offset": 0,
        "slot": "13",
        "type": "t_mapping(t_uint256,t_struct(DisputeDetails)561_storage)"
      },
      {
        "astId": 627,
        "contract": "src/RealitioForeignProxyArb.sol:RealitioForeignProxyArb",
        "label": "arbitrationIDToDisputeExists",
        "offset": 0,
        "slot": "14",
        "type": "t_mapping(t_uint256,t_bool)"
      },
      {
        "astId": 631,
        "contract": "src/RealitioForeignProxyArb.sol:RealitioForeignProxyArb",
        "label": "arbitrationIDToRequester",
        "offset": 0,
        "slot": "15",
        "type": "t_mapping(t_uint256,t_address)"
      }
    ],
    "types": {
      "t_address": {
        "encoding": "inplace",
        "label": "address",
        "numberOfBytes": "20"
      },
      "t_array(t_struct(Round)581_storage)dyn_storage": {
        "base": "t_struct(Round)581_storage",
        "encoding": "dynamic_array",
        "label": "struct RealitioForeignProxyArb.Round[]",
        "numberOfBytes": "32"
      },
      "t_array(t_uint256)dyn_storage": {
        "base": "t_uint256",
        "encoding": "dynamic_array",
        "label": "uint256[]",
        "numberOfBytes": "32"
      },
      "t_bool": {
        "encoding": "inplace",
        "label": "bool",
        "numberOfBytes": "1"
      },
      "t_bytes_storage": {
        "encoding": "bytes",
        "label": "bytes",
        "numberOfBytes": "32"
      },
      "t_contract(IArbitrator)454": {
        "encoding": "inplace",
        "label": "contract IArbitrator",
        "numberOfBytes": "20"
      },
      "t_contract(IInbox)3544": {
        "encoding": "inplace",
        "label": "contract IInbox",
        "numberOfBytes": "20"
      },
      "t_enum(Status)535": {
        "encoding": "inplace",
        "label": "enum RealitioForeignProxyArb.Status",
        "numberOfBytes": "1"
      },
      "t_mapping(t_address,t_mapping(t_uint256,t_uint256))": {
        "encoding": "mapping",
        "key": "t_address",
        "label": "mapping(address => mapping(uint256 => uint256))",
        "numberOfBytes": "32",
        "value": "t_mapping(t_uint256,t_uint256)"
      },
      "t_mapping(t_address,t_struct(ArbitrationRequest)556_storage)": {
        "encoding": "mapping",
        "key": "t_address",
        "label": "mapping(address => struct RealitioForeignProxyArb.ArbitrationRequest)",
        "numberOfBytes": "32",
        "value": "t_struct(ArbitrationRequest)556_storage"
      },
      "t_mapping(t_uint256,t_address)": {
        "encoding": "mapping",
        "key": "t_uint256",
        "label": "mapping(uint256 => address)",
        "numberOfBytes": "32",
        "value": "t_address"
      },
      "t_mapping(t_uint256,t_bool)": {
        "encoding": "mapping",
        "key": "t_uint256",
        "label": "mapping(uint256 => bool)",
        "numberOfBytes": "32",
        "value": "t_bool"
      },
      "t_mapping(t_uint256,t_mapping(t_address,t_struct(ArbitrationRequest)556_storage))": {
        "encoding": "mapping",
        "key": "t_uint256",
        "label": "mapping(uint256 => mapping(address => struct RealitioForeignProxyArb.ArbitrationRequest))",
        "numberOfBytes": "32",
        "value": "t_mapping(t_address,t_struct(ArbitrationRequest)556_storage)"
      },
      "t_mapping(t_uint256,t_struct(DisputeDetails)561_storage)": {
        "encoding": "mapping",
        "key": "t_uint256",
        "label": "mapping(uint256 => struct RealitioForeignProxyArb.DisputeDetails)",
        "numberOfBytes": "32",
        "value": "t_struct(DisputeDetails)561_storage"
      },
      "t_mapping(t_uint256,t_uint256)": {
        "encoding": "mapping",
        "key": "t_uint256",
        "label": "mapping(uint256 => uint256)",
        "numberOfBytes": "32",
        "value": "t_uint256"
      },
      "t_struct(ArbitrationRequest)556_storage": {
        "encoding": "inplace",
        "label": "struct RealitioForeignProxyArb.ArbitrationRequest",
        "members": [
          {
            "astId": 538,
            "contract": "src/RealitioForeignProxyArb.sol:RealitioForeignProxyArb",
            "label": "status",
            "offset": 0,
            "slot": "0",
            "type": "t_enum(Status)535"
          },
          {
            "astId": 540,
            "contract": "src/RealitioForeignProxyArb.sol:RealitioForeignProxyArb",
            "label": "deposit",
            "offset": 1,
            "slot": "0",
            "type": "t_uint248"
          },
          {
            "astId": 542,
            "contract": "src/RealitioForeignProxyArb.sol:RealitioForeignProxyArb",
            "label": "disputeID",
            "offset": 0,
            "slot": "1",
            "type": "t_uint256"
          },
          {
            "astId": 544,
            "contract": "src/RealitioForeignProxyArb.sol:RealitioForeignProxyArb",
            "label": "answer",
            "offset": 0,
            "slot": "2",
            "type": "t_uint256"
          },
          {
            "astId": 548,
            "contract": "src/RealitioForeignProxyArb.sol:RealitioForeignProxyArb",
            "label": "rounds",
            "offset": 0,
            "slot": "3",
            "type": "t_array(t_struct(Round)581_storage)dyn_storage"
          },
          {
            "astId": 551,
            "contract": "src/RealitioForeignProxyArb.sol:RealitioForeignProxyArb",
            "label": "arbitrator",
            "offset": 0,
            "slot": "4",
            "type": "t_contract(IArbitrator)454"
          },
          {
            "astId": 553,
            "contract": "src/RealitioForeignProxyArb.sol:RealitioForeignProxyArb",
            "label": "arbitratorExtraData",
            "offset": 0,
            "slot": "5",
            "type": "t_bytes_storage"
          },
          {
            "astId": 555,
            "contract": "src/RealitioForeignProxyArb.sol:RealitioForeignProxyArb",
            "label": "metaEvidenceID",
            "offset": 0,
            "slot": "6",
            "type": "t_uint256"
          }
        ],
        "numberOfBytes": "224"
      },
      "t_struct(DisputeDetails)561_storage": {
        "encoding": "inplace",
        "label": "struct RealitioForeignProxyArb.DisputeDetails",
        "members": [
          {
            "astId": 558,
            "contract": "src/RealitioForeignProxyArb.sol:RealitioForeignProxyArb",
            "label": "arbitrationID",
            "offset": 0,
            "slot": "0",
            "type": "t_uint256"
          },
          {
            "astId": 560,
            "contract": "src/RealitioForeignProxyArb.sol:RealitioForeignProxyArb",
            "label": "requester",
            "offset": 0,
            "slot": "1",
            "type": "t_address"
          }
        ],
        "numberOfBytes": "64"
      },
      "t_struct(Round)581_storage": {
        "encoding": "inplace",
        "label": "struct RealitioForeignProxyArb.Round",
        "members": [
          {
            "astId": 565,
            "contract": "src/RealitioForeignProxyArb.sol:RealitioForeignProxyArb",
            "label": "paidFees",
            "offset": 0,
            "slot": "0",
            "type": "t_mapping(t_uint256,t_uint256)"
          },
          {
            "astId": 569,
            "contract": "src/RealitioForeignProxyArb.sol:RealitioForeignProxyArb",
            "label": "hasPaid",
            "offset": 0,
            "slot": "1",
            "type": "t_mapping(t_uint256,t_bool)"
          },
          {
            "astId": 575,
            "contract": "src/RealitioForeignProxyArb.sol:RealitioForeignProxyArb",
            "label": "contributions",
            "offset": 0,
            "slot": "2",
            "type": "t_mapping(t_address,t_mapping(t_uint256,t_uint256))"
          },
          {
            "astId": 577,
            "contract": "src/RealitioForeignProxyArb.sol:RealitioForeignProxyArb",
            "label": "feeRewards",
            "offset": 0,
            "slot": "3",
            "type": "t_uint256"
          },
          {
            "astId": 580,
            "contract": "src/RealitioForeignProxyArb.sol:RealitioForeignProxyArb",
            "label": "fundedAnswers",
            "offset": 0,
            "slot": "4",
            "type": "t_array(t_uint256)dyn_storage"
          }
        ],
        "numberOfBytes": "160"
      },
      "t_uint248": {
        "encoding": "inplace",
        "label": "uint248",
        "numberOfBytes": "31"
      },
      "t_uint256": {
        "encoding": "inplace",
        "label": "uint256",
        "numberOfBytes": "32"
      }
    }
  }
}